{
  "_format": "hh-sol-artifact-1",
  "contractName": "CollateralTokenBacked",
  "sourceName": "contracts/CollateralTokenBacked.sol",
  "abi": [
    {
      "inputs": [
        {
          "internalType": "address",
          "name": "collateralTokenAddress",
          "type": "address"
        }
      ],
      "stateMutability": "nonpayable",
      "type": "constructor"
    },
    {
      "anonymous": false,
      "inputs": [
        {
          "indexed": true,
          "internalType": "address",
          "name": "owner",
          "type": "address"
        },
        {
          "indexed": true,
          "internalType": "address",
          "name": "spender",
          "type": "address"
        },
        {
          "indexed": false,
          "internalType": "uint256",
          "name": "value",
          "type": "uint256"
        }
      ],
      "name": "Approval",
      "type": "event"
    },
    {
      "anonymous": false,
      "inputs": [
        {
          "indexed": true,
          "internalType": "address",
          "name": "sender",
          "type": "address"
        },
        {
          "indexed": false,
          "internalType": "uint256",
          "name": "amount",
          "type": "uint256"
        }
      ],
      "name": "Deposited",
      "type": "event"
    },
    {
      "anonymous": false,
      "inputs": [
        {
          "indexed": true,
          "internalType": "address",
          "name": "from",
          "type": "address"
        },
        {
          "indexed": true,
          "internalType": "address",
          "name": "to",
          "type": "address"
        },
        {
          "indexed": false,
          "internalType": "uint256",
          "name": "value",
          "type": "uint256"
        }
      ],
      "name": "Transfer",
      "type": "event"
    },
    {
      "anonymous": false,
      "inputs": [
        {
          "indexed": true,
          "internalType": "address",
          "name": "sender",
          "type": "address"
        },
        {
          "indexed": false,
          "internalType": "uint256",
          "name": "amount",
          "type": "uint256"
        }
      ],
      "name": "Withdrawed",
      "type": "event"
    },
    {
      "inputs": [
        {
          "internalType": "address",
          "name": "owner",
          "type": "address"
        },
        {
          "internalType": "address",
          "name": "spender",
          "type": "address"
        }
      ],
      "name": "allowance",
      "outputs": [
        {
          "internalType": "uint256",
          "name": "",
          "type": "uint256"
        }
      ],
      "stateMutability": "view",
      "type": "function"
    },
    {
      "inputs": [
        {
          "internalType": "address",
          "name": "spender",
          "type": "address"
        },
        {
          "internalType": "uint256",
          "name": "amount",
          "type": "uint256"
        }
      ],
      "name": "approve",
      "outputs": [
        {
          "internalType": "bool",
          "name": "",
          "type": "bool"
        }
      ],
      "stateMutability": "nonpayable",
      "type": "function"
    },
    {
      "inputs": [
        {
          "internalType": "address",
          "name": "account",
          "type": "address"
        }
      ],
      "name": "balanceOf",
      "outputs": [
        {
          "internalType": "uint256",
          "name": "",
          "type": "uint256"
        }
      ],
      "stateMutability": "view",
      "type": "function"
    },
    {
      "inputs": [],
      "name": "collateralToken",
      "outputs": [
        {
          "internalType": "contract CollateralToken",
          "name": "",
          "type": "address"
        }
      ],
      "stateMutability": "view",
      "type": "function"
    },
    {
      "inputs": [],
      "name": "decimals",
      "outputs": [
        {
          "internalType": "uint8",
          "name": "",
          "type": "uint8"
        }
      ],
      "stateMutability": "view",
      "type": "function"
    },
    {
      "inputs": [
        {
          "internalType": "address",
          "name": "spender",
          "type": "address"
        },
        {
          "internalType": "uint256",
          "name": "subtractedValue",
          "type": "uint256"
        }
      ],
      "name": "decreaseAllowance",
      "outputs": [
        {
          "internalType": "bool",
          "name": "",
          "type": "bool"
        }
      ],
      "stateMutability": "nonpayable",
      "type": "function"
    },
    {
      "inputs": [
        {
          "internalType": "uint256",
          "name": "value",
          "type": "uint256"
        }
      ],
      "name": "deposit",
      "outputs": [],
      "stateMutability": "nonpayable",
      "type": "function"
    },
    {
      "inputs": [
        {
          "internalType": "address",
          "name": "spender",
          "type": "address"
        },
        {
          "internalType": "uint256",
          "name": "addedValue",
          "type": "uint256"
        }
      ],
      "name": "increaseAllowance",
      "outputs": [
        {
          "internalType": "bool",
          "name": "",
          "type": "bool"
        }
      ],
      "stateMutability": "nonpayable",
      "type": "function"
    },
    {
      "inputs": [],
      "name": "name",
      "outputs": [
        {
          "internalType": "string",
          "name": "",
          "type": "string"
        }
      ],
      "stateMutability": "view",
      "type": "function"
    },
    {
      "inputs": [],
      "name": "symbol",
      "outputs": [
        {
          "internalType": "string",
          "name": "",
          "type": "string"
        }
      ],
      "stateMutability": "view",
      "type": "function"
    },
    {
      "inputs": [],
      "name": "totalSupply",
      "outputs": [
        {
          "internalType": "uint256",
          "name": "",
          "type": "uint256"
        }
      ],
      "stateMutability": "view",
      "type": "function"
    },
    {
      "inputs": [
        {
          "internalType": "address",
          "name": "recipient",
          "type": "address"
        },
        {
          "internalType": "uint256",
          "name": "amount",
          "type": "uint256"
        }
      ],
      "name": "transfer",
      "outputs": [
        {
          "internalType": "bool",
          "name": "",
          "type": "bool"
        }
      ],
      "stateMutability": "nonpayable",
      "type": "function"
    },
    {
      "inputs": [
        {
          "internalType": "address",
          "name": "sender",
          "type": "address"
        },
        {
          "internalType": "address",
          "name": "recipient",
          "type": "address"
        },
        {
          "internalType": "uint256",
          "name": "amount",
          "type": "uint256"
        }
      ],
      "name": "transferFrom",
      "outputs": [
        {
          "internalType": "bool",
          "name": "",
          "type": "bool"
        }
      ],
      "stateMutability": "nonpayable",
      "type": "function"
    },
    {
      "inputs": [
        {
          "internalType": "uint256",
          "name": "value",
          "type": "uint256"
        }
      ],
      "name": "withdraw",
      "outputs": [],
      "stateMutability": "nonpayable",
      "type": "function"
    }
  ],
  "bytecode": "0x60806040523480156200001157600080fd5b50604051620022ae380380620022ae8339818101604052810190620000379190620001e6565b6040518060400160405280601581526020017f436f6c6c61746572616c546f6b656e4261636b656400000000000000000000008152506040518060400160405280600381526020017f43544200000000000000000000000000000000000000000000000000000000008152508160039080519060200190620000bb9291906200011f565b508060049080519060200190620000d49291906200011f565b50505080600560006101000a81548173ffffffffffffffffffffffffffffffffffffffff021916908373ffffffffffffffffffffffffffffffffffffffff16021790555050620002c5565b8280546200012d9062000246565b90600052602060002090601f0160209004810192826200015157600085556200019d565b82601f106200016c57805160ff19168380011785556200019d565b828001600101855582156200019d579182015b828111156200019c5782518255916020019190600101906200017f565b5b509050620001ac9190620001b0565b5090565b5b80821115620001cb576000816000905550600101620001b1565b5090565b600081519050620001e081620002ab565b92915050565b600060208284031215620001f957600080fd5b60006200020984828501620001cf565b91505092915050565b60006200021f8262000226565b9050919050565b600073ffffffffffffffffffffffffffffffffffffffff82169050919050565b600060028204905060018216806200025f57607f821691505b602082108114156200027657620002756200027c565b5b50919050565b7f4e487b7100000000000000000000000000000000000000000000000000000000600052602260045260246000fd5b620002b68162000212565b8114620002c257600080fd5b50565b611fd980620002d56000396000f3fe608060405234801561001057600080fd5b50600436106100ea5760003560e01c806370a082311161008c578063a9059cbb11610066578063a9059cbb14610273578063b2016bd4146102a3578063b6b55f25146102c1578063dd62ed3e146102dd576100ea565b806370a08231146101f557806395d89b4114610225578063a457c2d714610243576100ea565b806323b872dd116100c857806323b872dd1461015b5780632e1a7d4d1461018b578063313ce567146101a757806339509351146101c5576100ea565b806306fdde03146100ef578063095ea7b31461010d57806318160ddd1461013d575b600080fd5b6100f761030d565b60405161010491906117a5565b60405180910390f35b61012760048036038101906101229190611415565b61039f565b604051610134919061176f565b60405180910390f35b6101456103bd565b6040516101529190611947565b60405180910390f35b610175600480360381019061017091906113c6565b6103c7565b604051610182919061176f565b60405180910390f35b6101a560048036038101906101a0919061147a565b6104c8565b005b6101af610636565b6040516101bc9190611962565b60405180910390f35b6101df60048036038101906101da9190611415565b61063f565b6040516101ec919061176f565b60405180910390f35b61020f600480360381019061020a9190611361565b6106eb565b60405161021c9190611947565b60405180910390f35b61022d610733565b60405161023a91906117a5565b60405180910390f35b61025d60048036038101906102589190611415565b6107c5565b60405161026a919061176f565b60405180910390f35b61028d60048036038101906102889190611415565b6108b9565b60405161029a919061176f565b60405180910390f35b6102ab6108d7565b6040516102b8919061178a565b60405180910390f35b6102db60048036038101906102d6919061147a565b610901565b005b6102f760048036038101906102f2919061138a565b610b07565b6040516103049190611947565b60405180910390f35b60606003805461031c90611b00565b80601f016020809104026020016040519081016040528092919081815260200182805461034890611b00565b80156103955780601f1061036a57610100808354040283529160200191610395565b820191906000526020600020905b81548152906001019060200180831161037857829003601f168201915b5050505050905090565b60006103b36103ac610b8e565b8484610b96565b6001905092915050565b6000600254905090565b60006103d4848484610d61565b6000600160008673ffffffffffffffffffffffffffffffffffffffff1673ffffffffffffffffffffffffffffffffffffffff168152602001908152602001600020600061041f610b8e565b73ffffffffffffffffffffffffffffffffffffffff1673ffffffffffffffffffffffffffffffffffffffff1681526020019081526020016000205490508281101561049f576040517f08c379a000000000000000000000000000000000000000000000000000000000815260040161049690611887565b60405180910390fd5b6104bc856104ab610b8e565b85846104b79190611a20565b610b96565b60019150509392505050565b6002816104d591906119ef565b6104de336106eb565b101561051f576040517f08c379a0000000000000000000000000000000000000000000000000000000008152600401610516906117c7565b60405180910390fd5b600560009054906101000a900473ffffffffffffffffffffffffffffffffffffffff1673ffffffffffffffffffffffffffffffffffffffff1663a9059cbb33836040518363ffffffff1660e01b815260040161057c929190611746565b602060405180830381600087803b15801561059657600080fd5b505af11580156105aa573d6000803e3d6000fd5b505050506040513d601f19601f820116820180604052508101906105ce9190611451565b506105e5336002836105e091906119ef565b610fe0565b3373ffffffffffffffffffffffffffffffffffffffff167f6cca423c6ffc06e62a0acc433965e074b11c28479b0449250ce3ff65ac9e39fe8260405161062b9190611947565b60405180910390a250565b60006012905090565b60006106e161064c610b8e565b84846001600061065a610b8e565b73ffffffffffffffffffffffffffffffffffffffff1673ffffffffffffffffffffffffffffffffffffffff16815260200190815260200160002060008873ffffffffffffffffffffffffffffffffffffffff1673ffffffffffffffffffffffffffffffffffffffff168152602001908152602001600020546106dc9190611999565b610b96565b6001905092915050565b60008060008373ffffffffffffffffffffffffffffffffffffffff1673ffffffffffffffffffffffffffffffffffffffff168152602001908152602001600020549050919050565b60606004805461074290611b00565b80601f016020809104026020016040519081016040528092919081815260200182805461076e90611b00565b80156107bb5780601f10610790576101008083540402835291602001916107bb565b820191906000526020600020905b81548152906001019060200180831161079e57829003601f168201915b5050505050905090565b600080600160006107d4610b8e565b73ffffffffffffffffffffffffffffffffffffffff1673ffffffffffffffffffffffffffffffffffffffff16815260200190815260200160002060008573ffffffffffffffffffffffffffffffffffffffff1673ffffffffffffffffffffffffffffffffffffffff16815260200190815260200160002054905082811015610891576040517f08c379a000000000000000000000000000000000000000000000000000000000815260040161088890611907565b60405180910390fd5b6108ae61089c610b8e565b8585846108a99190611a20565b610b96565b600191505092915050565b60006108cd6108c6610b8e565b8484610d61565b6001905092915050565b6000600560009054906101000a900473ffffffffffffffffffffffffffffffffffffffff16905090565b80600560009054906101000a900473ffffffffffffffffffffffffffffffffffffffff1673ffffffffffffffffffffffffffffffffffffffff166370a08231336040518263ffffffff1660e01b815260040161095d91906116f4565b60206040518083038186803b15801561097557600080fd5b505afa158015610989573d6000803e3d6000fd5b505050506040513d601f19601f820116820180604052508101906109ad91906114a3565b10156109ee576040517f08c379a00000000000000000000000000000000000000000000000000000000081526004016109e590611847565b60405180910390fd5b600560009054906101000a900473ffffffffffffffffffffffffffffffffffffffff1673ffffffffffffffffffffffffffffffffffffffff166323b872dd3330846040518463ffffffff1660e01b8152600401610a4d9392919061170f565b602060405180830381600087803b158015610a6757600080fd5b505af1158015610a7b573d6000803e3d6000fd5b505050506040513d601f19601f82011682018060405250810190610a9f9190611451565b50610ab633600283610ab191906119ef565b6111b4565b3373ffffffffffffffffffffffffffffffffffffffff167f2da466a7b24304f47e87fa2e1e5a81b9831ce54fec19055ce277ca2f39ba42c482604051610afc9190611947565b60405180910390a250565b6000600160008473ffffffffffffffffffffffffffffffffffffffff1673ffffffffffffffffffffffffffffffffffffffff16815260200190815260200160002060008373ffffffffffffffffffffffffffffffffffffffff1673ffffffffffffffffffffffffffffffffffffffff16815260200190815260200160002054905092915050565b600033905090565b600073ffffffffffffffffffffffffffffffffffffffff168373ffffffffffffffffffffffffffffffffffffffff161415610c06576040517f08c379a0000000000000000000000000000000000000000000000000000000008152600401610bfd906118e7565b60405180910390fd5b600073ffffffffffffffffffffffffffffffffffffffff168273ffffffffffffffffffffffffffffffffffffffff161415610c76576040517f08c379a0000000000000000000000000000000000000000000000000000000008152600401610c6d90611827565b60405180910390fd5b80600160008573ffffffffffffffffffffffffffffffffffffffff1673ffffffffffffffffffffffffffffffffffffffff16815260200190815260200160002060008473ffffffffffffffffffffffffffffffffffffffff1673ffffffffffffffffffffffffffffffffffffffff168152602001908152602001600020819055508173ffffffffffffffffffffffffffffffffffffffff168373ffffffffffffffffffffffffffffffffffffffff167f8c5be1e5ebec7d5bd14f71427d1e84f3dd0314c0f7b2291e5b200ac8c7c3b92583604051610d549190611947565b60405180910390a3505050565b600073ffffffffffffffffffffffffffffffffffffffff168373ffffffffffffffffffffffffffffffffffffffff161415610dd1576040517f08c379a0000000000000000000000000000000000000000000000000000000008152600401610dc8906118c7565b60405180910390fd5b600073ffffffffffffffffffffffffffffffffffffffff168273ffffffffffffffffffffffffffffffffffffffff161415610e41576040517f08c379a0000000000000000000000000000000000000000000000000000000008152600401610e38906117e7565b60405180910390fd5b610e4c838383611308565b60008060008573ffffffffffffffffffffffffffffffffffffffff1673ffffffffffffffffffffffffffffffffffffffff16815260200190815260200160002054905081811015610ed2576040517f08c379a0000000000000000000000000000000000000000000000000000000008152600401610ec990611867565b60405180910390fd5b8181610ede9190611a20565b6000808673ffffffffffffffffffffffffffffffffffffffff1673ffffffffffffffffffffffffffffffffffffffff16815260200190815260200160002081905550816000808573ffffffffffffffffffffffffffffffffffffffff1673ffffffffffffffffffffffffffffffffffffffff1681526020019081526020016000206000828254610f6e9190611999565b925050819055508273ffffffffffffffffffffffffffffffffffffffff168473ffffffffffffffffffffffffffffffffffffffff167fddf252ad1be2c89b69c2b068fc378daa952ba7f163c4a11628f55a4df523b3ef84604051610fd29190611947565b60405180910390a350505050565b600073ffffffffffffffffffffffffffffffffffffffff168273ffffffffffffffffffffffffffffffffffffffff161415611050576040517f08c379a0000000000000000000000000000000000000000000000000000000008152600401611047906118a7565b60405180910390fd5b61105c82600083611308565b60008060008473ffffffffffffffffffffffffffffffffffffffff1673ffffffffffffffffffffffffffffffffffffffff168152602001908152602001600020549050818110156110e2576040517f08c379a00000000000000000000000000000000000000000000000000000000081526004016110d990611807565b60405180910390fd5b81816110ee9190611a20565b6000808573ffffffffffffffffffffffffffffffffffffffff1673ffffffffffffffffffffffffffffffffffffffff1681526020019081526020016000208190555081600260008282546111429190611a20565b92505081905550600073ffffffffffffffffffffffffffffffffffffffff168373ffffffffffffffffffffffffffffffffffffffff167fddf252ad1be2c89b69c2b068fc378daa952ba7f163c4a11628f55a4df523b3ef846040516111a79190611947565b60405180910390a3505050565b600073ffffffffffffffffffffffffffffffffffffffff168273ffffffffffffffffffffffffffffffffffffffff161415611224576040517f08c379a000000000000000000000000000000000000000000000000000000000815260040161121b90611927565b60405180910390fd5b61123060008383611308565b80600260008282546112429190611999565b92505081905550806000808473ffffffffffffffffffffffffffffffffffffffff1673ffffffffffffffffffffffffffffffffffffffff16815260200190815260200160002060008282546112979190611999565b925050819055508173ffffffffffffffffffffffffffffffffffffffff16600073ffffffffffffffffffffffffffffffffffffffff167fddf252ad1be2c89b69c2b068fc378daa952ba7f163c4a11628f55a4df523b3ef836040516112fc9190611947565b60405180910390a35050565b505050565b60008135905061131c81611f5e565b92915050565b60008151905061133181611f75565b92915050565b60008135905061134681611f8c565b92915050565b60008151905061135b81611f8c565b92915050565b60006020828403121561137357600080fd5b60006113818482850161130d565b91505092915050565b6000806040838503121561139d57600080fd5b60006113ab8582860161130d565b92505060206113bc8582860161130d565b9150509250929050565b6000806000606084860312156113db57600080fd5b60006113e98682870161130d565b93505060206113fa8682870161130d565b925050604061140b86828701611337565b9150509250925092565b6000806040838503121561142857600080fd5b60006114368582860161130d565b925050602061144785828601611337565b9150509250929050565b60006020828403121561146357600080fd5b600061147184828501611322565b91505092915050565b60006020828403121561148c57600080fd5b600061149a84828501611337565b91505092915050565b6000602082840312156114b557600080fd5b60006114c38482850161134c565b91505092915050565b6114d581611a54565b82525050565b6114e481611a66565b82525050565b6114f381611aa9565b82525050565b60006115048261197d565b61150e8185611988565b935061151e818560208601611acd565b61152781611bbf565b840191505092915050565b600061153f603f83611988565b915061154a82611bd0565b604082019050919050565b6000611562602383611988565b915061156d82611c1f565b604082019050919050565b6000611585602283611988565b915061159082611c6e565b604082019050919050565b60006115a8602283611988565b91506115b382611cbd565b604082019050919050565b60006115cb603283611988565b91506115d682611d0c565b604082019050919050565b60006115ee602683611988565b91506115f982611d5b565b604082019050919050565b6000611611602883611988565b915061161c82611daa565b604082019050919050565b6000611634602183611988565b915061163f82611df9565b604082019050919050565b6000611657602583611988565b915061166282611e48565b604082019050919050565b600061167a602483611988565b915061168582611e97565b604082019050919050565b600061169d602583611988565b91506116a882611ee6565b604082019050919050565b60006116c0601f83611988565b91506116cb82611f35565b602082019050919050565b6116df81611a92565b82525050565b6116ee81611a9c565b82525050565b600060208201905061170960008301846114cc565b92915050565b600060608201905061172460008301866114cc565b61173160208301856114cc565b61173e60408301846116d6565b949350505050565b600060408201905061175b60008301856114cc565b61176860208301846116d6565b9392505050565b600060208201905061178460008301846114db565b92915050565b600060208201905061179f60008301846114ea565b92915050565b600060208201905081810360008301526117bf81846114f9565b905092915050565b600060208201905081810360008301526117e081611532565b9050919050565b6000602082019050818103600083015261180081611555565b9050919050565b6000602082019050818103600083015261182081611578565b9050919050565b600060208201905081810360008301526118408161159b565b9050919050565b60006020820190508181036000830152611860816115be565b9050919050565b60006020820190508181036000830152611880816115e1565b9050919050565b600060208201905081810360008301526118a081611604565b9050919050565b600060208201905081810360008301526118c081611627565b9050919050565b600060208201905081810360008301526118e08161164a565b9050919050565b600060208201905081810360008301526119008161166d565b9050919050565b6000602082019050818103600083015261192081611690565b9050919050565b60006020820190508181036000830152611940816116b3565b9050919050565b600060208201905061195c60008301846116d6565b92915050565b600060208201905061197760008301846116e5565b92915050565b600081519050919050565b600082825260208201905092915050565b60006119a482611a92565b91506119af83611a92565b9250827fffffffffffffffffffffffffffffffffffffffffffffffffffffffffffffffff038211156119e4576119e3611b32565b5b828201905092915050565b60006119fa82611a92565b9150611a0583611a92565b925082611a1557611a14611b61565b5b828204905092915050565b6000611a2b82611a92565b9150611a3683611a92565b925082821015611a4957611a48611b32565b5b828203905092915050565b6000611a5f82611a72565b9050919050565b60008115159050919050565b600073ffffffffffffffffffffffffffffffffffffffff82169050919050565b6000819050919050565b600060ff82169050919050565b6000611ab482611abb565b9050919050565b6000611ac682611a72565b9050919050565b60005b83811015611aeb578082015181840152602081019050611ad0565b83811115611afa576000848401525b50505050565b60006002820490506001821680611b1857607f821691505b60208210811415611b2c57611b2b611b90565b5b50919050565b7f4e487b7100000000000000000000000000000000000000000000000000000000600052601160045260246000fd5b7f4e487b7100000000000000000000000000000000000000000000000000000000600052601260045260246000fd5b7f4e487b7100000000000000000000000000000000000000000000000000000000600052602260045260246000fd5b6000601f19601f8301169050919050565b7f436f6c6c61746572616c546f6b656e4261636b6564203a20796f752063616e2060008201527f6e6f74207769746864726177206d6f7265207468616e20796f75206861766500602082015250565b7f45524332303a207472616e7366657220746f20746865207a65726f206164647260008201527f6573730000000000000000000000000000000000000000000000000000000000602082015250565b7f45524332303a206275726e20616d6f756e7420657863656564732062616c616e60008201527f6365000000000000000000000000000000000000000000000000000000000000602082015250565b7f45524332303a20617070726f766520746f20746865207a65726f20616464726560008201527f7373000000000000000000000000000000000000000000000000000000000000602082015250565b7f436f6c6c61746572616c546f6b656e4261636b6564203a20796f7520646f206e60008201527f6f74206861766520656e6f756768742043540000000000000000000000000000602082015250565b7f45524332303a207472616e7366657220616d6f756e742065786365656473206260008201527f616c616e63650000000000000000000000000000000000000000000000000000602082015250565b7f45524332303a207472616e7366657220616d6f756e742065786365656473206160008201527f6c6c6f77616e6365000000000000000000000000000000000000000000000000602082015250565b7f45524332303a206275726e2066726f6d20746865207a65726f2061646472657360008201527f7300000000000000000000000000000000000000000000000000000000000000602082015250565b7f45524332303a207472616e736665722066726f6d20746865207a65726f20616460008201527f6472657373000000000000000000000000000000000000000000000000000000602082015250565b7f45524332303a20617070726f76652066726f6d20746865207a65726f2061646460008201527f7265737300000000000000000000000000000000000000000000000000000000602082015250565b7f45524332303a2064656372656173656420616c6c6f77616e63652062656c6f7760008201527f207a65726f000000000000000000000000000000000000000000000000000000602082015250565b7f45524332303a206d696e7420746f20746865207a65726f206164647265737300600082015250565b611f6781611a54565b8114611f7257600080fd5b50565b611f7e81611a66565b8114611f8957600080fd5b50565b611f9581611a92565b8114611fa057600080fd5b5056fea26469706673582212204e3c12d3004b344376e1787237331864121fd62463e0c9fffeeadcf53dac557764736f6c63430008040033",
  "linkReferences": {},
  "deployedLinkReferences": {}
}