{
  "_format": "hh-sol-artifact-1",
  "contractName": "WrappedEther",
  "sourceName": "contracts/WrappedEther.sol",
  "abi": [
    {
      "inputs": [
        {
          "internalType": "address",
          "name": "reserve_",
          "type": "address"
        },
        {
          "internalType": "uint256",
          "name": "initialSupply",
          "type": "uint256"
        }
      ],
      "stateMutability": "nonpayable",
      "type": "constructor"
    },
    {
      "anonymous": false,
      "inputs": [
        {
          "indexed": true,
          "internalType": "address",
          "name": "owner",
          "type": "address"
        },
        {
          "indexed": true,
          "internalType": "address",
          "name": "spender",
          "type": "address"
        },
        {
          "indexed": false,
          "internalType": "uint256",
          "name": "value",
          "type": "uint256"
        }
      ],
      "name": "Approval",
      "type": "event"
    },
    {
      "anonymous": false,
      "inputs": [
        {
          "indexed": true,
          "internalType": "address",
          "name": "sender",
          "type": "address"
        },
        {
          "indexed": false,
          "internalType": "uint256",
          "name": "amount",
          "type": "uint256"
        }
      ],
      "name": "Deposited",
      "type": "event"
    },
    {
      "anonymous": false,
      "inputs": [
        {
          "indexed": true,
          "internalType": "address",
          "name": "from",
          "type": "address"
        },
        {
          "indexed": true,
          "internalType": "address",
          "name": "to",
          "type": "address"
        },
        {
          "indexed": false,
          "internalType": "uint256",
          "name": "value",
          "type": "uint256"
        }
      ],
      "name": "Transfer",
      "type": "event"
    },
    {
      "anonymous": false,
      "inputs": [
        {
          "indexed": true,
          "internalType": "address",
          "name": "sender",
          "type": "address"
        },
        {
          "indexed": false,
          "internalType": "uint256",
          "name": "amount",
          "type": "uint256"
        }
      ],
      "name": "Withdrawed",
      "type": "event"
    },
    {
      "inputs": [
        {
          "internalType": "address",
          "name": "owner",
          "type": "address"
        },
        {
          "internalType": "address",
          "name": "spender",
          "type": "address"
        }
      ],
      "name": "allowance",
      "outputs": [
        {
          "internalType": "uint256",
          "name": "",
          "type": "uint256"
        }
      ],
      "stateMutability": "view",
      "type": "function"
    },
    {
      "inputs": [
        {
          "internalType": "address",
          "name": "spender",
          "type": "address"
        },
        {
          "internalType": "uint256",
          "name": "amount",
          "type": "uint256"
        }
      ],
      "name": "approve",
      "outputs": [
        {
          "internalType": "bool",
          "name": "",
          "type": "bool"
        }
      ],
      "stateMutability": "nonpayable",
      "type": "function"
    },
    {
      "inputs": [
        {
          "internalType": "address",
          "name": "account",
          "type": "address"
        }
      ],
      "name": "balanceOf",
      "outputs": [
        {
          "internalType": "uint256",
          "name": "",
          "type": "uint256"
        }
      ],
      "stateMutability": "view",
      "type": "function"
    },
    {
      "inputs": [],
      "name": "decimals",
      "outputs": [
        {
          "internalType": "uint8",
          "name": "",
          "type": "uint8"
        }
      ],
      "stateMutability": "view",
      "type": "function"
    },
    {
      "inputs": [
        {
          "internalType": "address",
          "name": "spender",
          "type": "address"
        },
        {
          "internalType": "uint256",
          "name": "subtractedValue",
          "type": "uint256"
        }
      ],
      "name": "decreaseAllowance",
      "outputs": [
        {
          "internalType": "bool",
          "name": "",
          "type": "bool"
        }
      ],
      "stateMutability": "nonpayable",
      "type": "function"
    },
    {
      "inputs": [],
      "name": "deposit",
      "outputs": [],
      "stateMutability": "payable",
      "type": "function"
    },
    {
      "inputs": [
        {
          "internalType": "address",
          "name": "spender",
          "type": "address"
        },
        {
          "internalType": "uint256",
          "name": "addedValue",
          "type": "uint256"
        }
      ],
      "name": "increaseAllowance",
      "outputs": [
        {
          "internalType": "bool",
          "name": "",
          "type": "bool"
        }
      ],
      "stateMutability": "nonpayable",
      "type": "function"
    },
    {
      "inputs": [],
      "name": "name",
      "outputs": [
        {
          "internalType": "string",
          "name": "",
          "type": "string"
        }
      ],
      "stateMutability": "view",
      "type": "function"
    },
    {
      "inputs": [],
      "name": "reserve",
      "outputs": [
        {
          "internalType": "address",
          "name": "",
          "type": "address"
        }
      ],
      "stateMutability": "view",
      "type": "function"
    },
    {
      "inputs": [],
      "name": "symbol",
      "outputs": [
        {
          "internalType": "string",
          "name": "",
          "type": "string"
        }
      ],
      "stateMutability": "view",
      "type": "function"
    },
    {
      "inputs": [],
      "name": "totalSupply",
      "outputs": [
        {
          "internalType": "uint256",
          "name": "",
          "type": "uint256"
        }
      ],
      "stateMutability": "view",
      "type": "function"
    },
    {
      "inputs": [
        {
          "internalType": "address",
          "name": "recipient",
          "type": "address"
        },
        {
          "internalType": "uint256",
          "name": "amount",
          "type": "uint256"
        }
      ],
      "name": "transfer",
      "outputs": [
        {
          "internalType": "bool",
          "name": "",
          "type": "bool"
        }
      ],
      "stateMutability": "nonpayable",
      "type": "function"
    },
    {
      "inputs": [
        {
          "internalType": "address",
          "name": "sender",
          "type": "address"
        },
        {
          "internalType": "address",
          "name": "recipient",
          "type": "address"
        },
        {
          "internalType": "uint256",
          "name": "amount",
          "type": "uint256"
        }
      ],
      "name": "transferFrom",
      "outputs": [
        {
          "internalType": "bool",
          "name": "",
          "type": "bool"
        }
      ],
      "stateMutability": "nonpayable",
      "type": "function"
    },
    {
      "inputs": [
        {
          "internalType": "uint256",
          "name": "amount",
          "type": "uint256"
        }
      ],
      "name": "withdraw",
      "outputs": [],
      "stateMutability": "nonpayable",
      "type": "function"
    },
    {
      "stateMutability": "payable",
      "type": "receive"
    }
  ],
  "bytecode": "0x60806040523480156200001157600080fd5b506040516200241f3803806200241f83398181016040528101906200003791906200037a565b6040518060400160405280600c81526020017f57726170706564457468657200000000000000000000000000000000000000008152506040518060400160405280600481526020017f57455448000000000000000000000000000000000000000000000000000000008152508160039080519060200190620000bb9291906200029c565b508060049080519060200190620000d49291906200029c565b50505081600560006101000a81548173ffffffffffffffffffffffffffffffffffffffff021916908373ffffffffffffffffffffffffffffffffffffffff1602179055506200012a82826200013260201b60201c565b5050620005cf565b600073ffffffffffffffffffffffffffffffffffffffff168273ffffffffffffffffffffffffffffffffffffffff161415620001a5576040517f08c379a00000000000000000000000000000000000000000000000000000000081526004016200019c90620003f3565b60405180910390fd5b620001b9600083836200029760201b60201c565b8060026000828254620001cd919062000443565b92505081905550806000808473ffffffffffffffffffffffffffffffffffffffff1673ffffffffffffffffffffffffffffffffffffffff168152602001908152602001600020600082825462000224919062000443565b925050819055508173ffffffffffffffffffffffffffffffffffffffff16600073ffffffffffffffffffffffffffffffffffffffff167fddf252ad1be2c89b69c2b068fc378daa952ba7f163c4a11628f55a4df523b3ef836040516200028b919062000415565b60405180910390a35050565b505050565b828054620002aa90620004de565b90600052602060002090601f016020900481019282620002ce57600085556200031a565b82601f10620002e957805160ff19168380011785556200031a565b828001600101855582156200031a579182015b8281111562000319578251825591602001919060010190620002fc565b5b5090506200032991906200032d565b5090565b5b80821115620003485760008160009055506001016200032e565b5090565b6000815190506200035d816200059b565b92915050565b6000815190506200037481620005b5565b92915050565b600080604083850312156200038e57600080fd5b60006200039e858286016200034c565b9250506020620003b18582860162000363565b9150509250929050565b6000620003ca601f8362000432565b9150620003d78262000572565b602082019050919050565b620003ed81620004d4565b82525050565b600060208201905081810360008301526200040e81620003bb565b9050919050565b60006020820190506200042c6000830184620003e2565b92915050565b600082825260208201905092915050565b60006200045082620004d4565b91506200045d83620004d4565b9250827fffffffffffffffffffffffffffffffffffffffffffffffffffffffffffffffff0382111562000495576200049462000514565b5b828201905092915050565b6000620004ad82620004b4565b9050919050565b600073ffffffffffffffffffffffffffffffffffffffff82169050919050565b6000819050919050565b60006002820490506001821680620004f757607f821691505b602082108114156200050e576200050d62000543565b5b50919050565b7f4e487b7100000000000000000000000000000000000000000000000000000000600052601160045260246000fd5b7f4e487b7100000000000000000000000000000000000000000000000000000000600052602260045260246000fd5b7f45524332303a206d696e7420746f20746865207a65726f206164647265737300600082015250565b620005a681620004a0565b8114620005b257600080fd5b50565b620005c081620004d4565b8114620005cc57600080fd5b50565b611e4080620005df6000396000f3fe6080604052600436106100e15760003560e01c806370a082311161007f578063a9059cbb11610059578063a9059cbb146102fd578063cd3293de1461033a578063d0e30db014610365578063dd62ed3e1461036f576100f2565b806370a082311461025857806395d89b4114610295578063a457c2d7146102c0576100f2565b806323b872dd116100bb57806323b872dd1461018a5780632e1a7d4d146101c7578063313ce567146101f0578063395093511461021b576100f2565b806306fdde03146100f7578063095ea7b31461012257806318160ddd1461015f576100f2565b366100f2576100f033346103ac565b005b600080fd5b34801561010357600080fd5b5061010c610408565b6040516101199190611650565b60405180910390f35b34801561012e57600080fd5b5061014960048036038101906101449190611341565b61049a565b6040516101569190611635565b60405180910390f35b34801561016b57600080fd5b506101746104b8565b6040516101819190611812565b60405180910390f35b34801561019657600080fd5b506101b160048036038101906101ac91906112f2565b6104c2565b6040516101be9190611635565b60405180910390f35b3480156101d357600080fd5b506101ee60048036038101906101e9919061137d565b6105c3565b005b3480156101fc57600080fd5b50610205610692565b604051610212919061182d565b60405180910390f35b34801561022757600080fd5b50610242600480360381019061023d9190611341565b61069b565b60405161024f9190611635565b60405180910390f35b34801561026457600080fd5b5061027f600480360381019061027a919061128d565b610747565b60405161028c9190611812565b60405180910390f35b3480156102a157600080fd5b506102aa61078f565b6040516102b79190611650565b60405180910390f35b3480156102cc57600080fd5b506102e760048036038101906102e29190611341565b610821565b6040516102f49190611635565b60405180910390f35b34801561030957600080fd5b50610324600480360381019061031f9190611341565b610915565b6040516103319190611635565b60405180910390f35b34801561034657600080fd5b5061034f610933565b60405161035c919061161a565b60405180910390f35b61036d61095d565b005b34801561037b57600080fd5b50610396600480360381019061039191906112b6565b610969565b6040516103a39190611812565b60405180910390f35b6103b682826109f0565b8173ffffffffffffffffffffffffffffffffffffffff167f2da466a7b24304f47e87fa2e1e5a81b9831ce54fec19055ce277ca2f39ba42c4826040516103fc9190611812565b60405180910390a25050565b60606003805461041790611981565b80601f016020809104026020016040519081016040528092919081815260200182805461044390611981565b80156104905780601f1061046557610100808354040283529160200191610490565b820191906000526020600020905b81548152906001019060200180831161047357829003601f168201915b5050505050905090565b60006104ae6104a7610b44565b8484610b4c565b6001905092915050565b6000600254905090565b60006104cf848484610d17565b6000600160008673ffffffffffffffffffffffffffffffffffffffff1673ffffffffffffffffffffffffffffffffffffffff168152602001908152602001600020600061051a610b44565b73ffffffffffffffffffffffffffffffffffffffff1673ffffffffffffffffffffffffffffffffffffffff1681526020019081526020016000205490508281101561059a576040517f08c379a000000000000000000000000000000000000000000000000000000000815260040161059190611752565b60405180910390fd5b6105b7856105a6610b44565b85846105b291906118c5565b610b4c565b60019150509392505050565b806105cd33610747565b101561060e576040517f08c379a000000000000000000000000000000000000000000000000000000000815260040161060590611732565b60405180910390fd5b6106183382610f96565b610641813373ffffffffffffffffffffffffffffffffffffffff1661116a90919063ffffffff16565b3373ffffffffffffffffffffffffffffffffffffffff167f6cca423c6ffc06e62a0acc433965e074b11c28479b0449250ce3ff65ac9e39fe826040516106879190611812565b60405180910390a250565b60006012905090565b600061073d6106a8610b44565b8484600160006106b6610b44565b73ffffffffffffffffffffffffffffffffffffffff1673ffffffffffffffffffffffffffffffffffffffff16815260200190815260200160002060008873ffffffffffffffffffffffffffffffffffffffff1673ffffffffffffffffffffffffffffffffffffffff16815260200190815260200160002054610738919061186f565b610b4c565b6001905092915050565b60008060008373ffffffffffffffffffffffffffffffffffffffff1673ffffffffffffffffffffffffffffffffffffffff168152602001908152602001600020549050919050565b60606004805461079e90611981565b80601f01602080910402602001604051908101604052809291908181526020018280546107ca90611981565b80156108175780601f106107ec57610100808354040283529160200191610817565b820191906000526020600020905b8154815290600101906020018083116107fa57829003601f168201915b5050505050905090565b60008060016000610830610b44565b73ffffffffffffffffffffffffffffffffffffffff1673ffffffffffffffffffffffffffffffffffffffff16815260200190815260200160002060008573ffffffffffffffffffffffffffffffffffffffff1673ffffffffffffffffffffffffffffffffffffffff168152602001908152602001600020549050828110156108ed576040517f08c379a00000000000000000000000000000000000000000000000000000000081526004016108e4906117d2565b60405180910390fd5b61090a6108f8610b44565b85858461090591906118c5565b610b4c565b600191505092915050565b6000610929610922610b44565b8484610d17565b6001905092915050565b6000600560009054906101000a900473ffffffffffffffffffffffffffffffffffffffff16905090565b61096733346103ac565b565b6000600160008473ffffffffffffffffffffffffffffffffffffffff1673ffffffffffffffffffffffffffffffffffffffff16815260200190815260200160002060008373ffffffffffffffffffffffffffffffffffffffff1673ffffffffffffffffffffffffffffffffffffffff16815260200190815260200160002054905092915050565b600073ffffffffffffffffffffffffffffffffffffffff168273ffffffffffffffffffffffffffffffffffffffff161415610a60576040517f08c379a0000000000000000000000000000000000000000000000000000000008152600401610a57906117f2565b60405180910390fd5b610a6c6000838361125e565b8060026000828254610a7e919061186f565b92505081905550806000808473ffffffffffffffffffffffffffffffffffffffff1673ffffffffffffffffffffffffffffffffffffffff1681526020019081526020016000206000828254610ad3919061186f565b925050819055508173ffffffffffffffffffffffffffffffffffffffff16600073ffffffffffffffffffffffffffffffffffffffff167fddf252ad1be2c89b69c2b068fc378daa952ba7f163c4a11628f55a4df523b3ef83604051610b389190611812565b60405180910390a35050565b600033905090565b600073ffffffffffffffffffffffffffffffffffffffff168373ffffffffffffffffffffffffffffffffffffffff161415610bbc576040517f08c379a0000000000000000000000000000000000000000000000000000000008152600401610bb3906117b2565b60405180910390fd5b600073ffffffffffffffffffffffffffffffffffffffff168273ffffffffffffffffffffffffffffffffffffffff161415610c2c576040517f08c379a0000000000000000000000000000000000000000000000000000000008152600401610c23906116b2565b60405180910390fd5b80600160008573ffffffffffffffffffffffffffffffffffffffff1673ffffffffffffffffffffffffffffffffffffffff16815260200190815260200160002060008473ffffffffffffffffffffffffffffffffffffffff1673ffffffffffffffffffffffffffffffffffffffff168152602001908152602001600020819055508173ffffffffffffffffffffffffffffffffffffffff168373ffffffffffffffffffffffffffffffffffffffff167f8c5be1e5ebec7d5bd14f71427d1e84f3dd0314c0f7b2291e5b200ac8c7c3b92583604051610d0a9190611812565b60405180910390a3505050565b600073ffffffffffffffffffffffffffffffffffffffff168373ffffffffffffffffffffffffffffffffffffffff161415610d87576040517f08c379a0000000000000000000000000000000000000000000000000000000008152600401610d7e90611792565b60405180910390fd5b600073ffffffffffffffffffffffffffffffffffffffff168273ffffffffffffffffffffffffffffffffffffffff161415610df7576040517f08c379a0000000000000000000000000000000000000000000000000000000008152600401610dee90611672565b60405180910390fd5b610e0283838361125e565b60008060008573ffffffffffffffffffffffffffffffffffffffff1673ffffffffffffffffffffffffffffffffffffffff16815260200190815260200160002054905081811015610e88576040517f08c379a0000000000000000000000000000000000000000000000000000000008152600401610e7f906116d2565b60405180910390fd5b8181610e9491906118c5565b6000808673ffffffffffffffffffffffffffffffffffffffff1673ffffffffffffffffffffffffffffffffffffffff16815260200190815260200160002081905550816000808573ffffffffffffffffffffffffffffffffffffffff1673ffffffffffffffffffffffffffffffffffffffff1681526020019081526020016000206000828254610f24919061186f565b925050819055508273ffffffffffffffffffffffffffffffffffffffff168473ffffffffffffffffffffffffffffffffffffffff167fddf252ad1be2c89b69c2b068fc378daa952ba7f163c4a11628f55a4df523b3ef84604051610f889190611812565b60405180910390a350505050565b600073ffffffffffffffffffffffffffffffffffffffff168273ffffffffffffffffffffffffffffffffffffffff161415611006576040517f08c379a0000000000000000000000000000000000000000000000000000000008152600401610ffd90611772565b60405180910390fd5b6110128260008361125e565b60008060008473ffffffffffffffffffffffffffffffffffffffff1673ffffffffffffffffffffffffffffffffffffffff16815260200190815260200160002054905081811015611098576040517f08c379a000000000000000000000000000000000000000000000000000000000815260040161108f90611692565b60405180910390fd5b81816110a491906118c5565b6000808573ffffffffffffffffffffffffffffffffffffffff1673ffffffffffffffffffffffffffffffffffffffff1681526020019081526020016000208190555081600260008282546110f891906118c5565b92505081905550600073ffffffffffffffffffffffffffffffffffffffff168373ffffffffffffffffffffffffffffffffffffffff167fddf252ad1be2c89b69c2b068fc378daa952ba7f163c4a11628f55a4df523b3ef8460405161115d9190611812565b60405180910390a3505050565b804710156111ad576040517f08c379a00000000000000000000000000000000000000000000000000000000081526004016111a490611712565b60405180910390fd5b60008273ffffffffffffffffffffffffffffffffffffffff16826040516111d390611605565b60006040518083038185875af1925050503d8060008114611210576040519150601f19603f3d011682016040523d82523d6000602084013e611215565b606091505b5050905080611259576040517f08c379a0000000000000000000000000000000000000000000000000000000008152600401611250906116f2565b60405180910390fd5b505050565b505050565b60008135905061127281611ddc565b92915050565b60008135905061128781611df3565b92915050565b60006020828403121561129f57600080fd5b60006112ad84828501611263565b91505092915050565b600080604083850312156112c957600080fd5b60006112d785828601611263565b92505060206112e885828601611263565b9150509250929050565b60008060006060848603121561130757600080fd5b600061131586828701611263565b935050602061132686828701611263565b925050604061133786828701611278565b9150509250925092565b6000806040838503121561135457600080fd5b600061136285828601611263565b925050602061137385828601611278565b9150509250929050565b60006020828403121561138f57600080fd5b600061139d84828501611278565b91505092915050565b6113af816118f9565b82525050565b6113be8161190b565b82525050565b60006113cf82611848565b6113d9818561185e565b93506113e981856020860161194e565b6113f281611a11565b840191505092915050565b600061140a60238361185e565b915061141582611a22565b604082019050919050565b600061142d60228361185e565b915061143882611a71565b604082019050919050565b600061145060228361185e565b915061145b82611ac0565b604082019050919050565b600061147360268361185e565b915061147e82611b0f565b604082019050919050565b6000611496603a8361185e565b91506114a182611b5e565b604082019050919050565b60006114b9601d8361185e565b91506114c482611bad565b602082019050919050565b60006114dc60368361185e565b91506114e782611bd6565b604082019050919050565b60006114ff60288361185e565b915061150a82611c25565b604082019050919050565b600061152260218361185e565b915061152d82611c74565b604082019050919050565b600061154560258361185e565b915061155082611cc3565b604082019050919050565b6000611568600083611853565b915061157382611d12565b600082019050919050565b600061158b60248361185e565b915061159682611d15565b604082019050919050565b60006115ae60258361185e565b91506115b982611d64565b604082019050919050565b60006115d1601f8361185e565b91506115dc82611db3565b602082019050919050565b6115f081611937565b82525050565b6115ff81611941565b82525050565b60006116108261155b565b9150819050919050565b600060208201905061162f60008301846113a6565b92915050565b600060208201905061164a60008301846113b5565b92915050565b6000602082019050818103600083015261166a81846113c4565b905092915050565b6000602082019050818103600083015261168b816113fd565b9050919050565b600060208201905081810360008301526116ab81611420565b9050919050565b600060208201905081810360008301526116cb81611443565b9050919050565b600060208201905081810360008301526116eb81611466565b9050919050565b6000602082019050818103600083015261170b81611489565b9050919050565b6000602082019050818103600083015261172b816114ac565b9050919050565b6000602082019050818103600083015261174b816114cf565b9050919050565b6000602082019050818103600083015261176b816114f2565b9050919050565b6000602082019050818103600083015261178b81611515565b9050919050565b600060208201905081810360008301526117ab81611538565b9050919050565b600060208201905081810360008301526117cb8161157e565b9050919050565b600060208201905081810360008301526117eb816115a1565b9050919050565b6000602082019050818103600083015261180b816115c4565b9050919050565b600060208201905061182760008301846115e7565b92915050565b600060208201905061184260008301846115f6565b92915050565b600081519050919050565b600081905092915050565b600082825260208201905092915050565b600061187a82611937565b915061188583611937565b9250827fffffffffffffffffffffffffffffffffffffffffffffffffffffffffffffffff038211156118ba576118b96119b3565b5b828201905092915050565b60006118d082611937565b91506118db83611937565b9250828210156118ee576118ed6119b3565b5b828203905092915050565b600061190482611917565b9050919050565b60008115159050919050565b600073ffffffffffffffffffffffffffffffffffffffff82169050919050565b6000819050919050565b600060ff82169050919050565b60005b8381101561196c578082015181840152602081019050611951565b8381111561197b576000848401525b50505050565b6000600282049050600182168061199957607f821691505b602082108114156119ad576119ac6119e2565b5b50919050565b7f4e487b7100000000000000000000000000000000000000000000000000000000600052601160045260246000fd5b7f4e487b7100000000000000000000000000000000000000000000000000000000600052602260045260246000fd5b6000601f19601f8301169050919050565b7f45524332303a207472616e7366657220746f20746865207a65726f206164647260008201527f6573730000000000000000000000000000000000000000000000000000000000602082015250565b7f45524332303a206275726e20616d6f756e7420657863656564732062616c616e60008201527f6365000000000000000000000000000000000000000000000000000000000000602082015250565b7f45524332303a20617070726f766520746f20746865207a65726f20616464726560008201527f7373000000000000000000000000000000000000000000000000000000000000602082015250565b7f45524332303a207472616e7366657220616d6f756e742065786365656473206260008201527f616c616e63650000000000000000000000000000000000000000000000000000602082015250565b7f416464726573733a20756e61626c6520746f2073656e642076616c75652c207260008201527f6563697069656e74206d61792068617665207265766572746564000000000000602082015250565b7f416464726573733a20696e73756666696369656e742062616c616e6365000000600082015250565b7f577261707065644574686572203a20796f752063616e206e6f7420776974686460008201527f726177206d6f7265207468616e20796f75206861766500000000000000000000602082015250565b7f45524332303a207472616e7366657220616d6f756e742065786365656473206160008201527f6c6c6f77616e6365000000000000000000000000000000000000000000000000602082015250565b7f45524332303a206275726e2066726f6d20746865207a65726f2061646472657360008201527f7300000000000000000000000000000000000000000000000000000000000000602082015250565b7f45524332303a207472616e736665722066726f6d20746865207a65726f20616460008201527f6472657373000000000000000000000000000000000000000000000000000000602082015250565b50565b7f45524332303a20617070726f76652066726f6d20746865207a65726f2061646460008201527f7265737300000000000000000000000000000000000000000000000000000000602082015250565b7f45524332303a2064656372656173656420616c6c6f77616e63652062656c6f7760008201527f207a65726f000000000000000000000000000000000000000000000000000000602082015250565b7f45524332303a206d696e7420746f20746865207a65726f206164647265737300600082015250565b611de5816118f9565b8114611df057600080fd5b50565b611dfc81611937565b8114611e0757600080fd5b5056fea2646970667358221220127f88aae4ccf05f04499306e9aa22beca32af9b3961268ec9bc1481c44cd80464736f6c63430008040033",
  "linkReferences": {},
  "deployedLinkReferences": {}
}